:020000040800F2
:10000000000002202D0300087D0300087D03000886
:100010007D0300087D0300087D0300080000000048
:100020000000000000000000000000007D03000848
:1000300000000000000000007D0300087D030008B0
:100040007D0300087D0300087D0300087D03000890
:100050007D0300087D0300087D0300087D03000880
:100060007D0300087D0300087D0300087D03000870
:100070007D0300087D0300087D0300087D03000860
:100080007D0300087D0300087D03000800000000D8
:100090000000000000000000000000007D030008D8
:1000A0007D0300087D0300087D0300087D03000830
:1000B0007D0300087D0300087D0300087D03000820
:1000C0007D0300087D0300087D0300087D03000810
:1000D0007D0300087D0300087D0300080000000088
:1000E0007D0300087D0300087D0300080000000078
:1000F0000000000000000000000000007D03000878
:10010000000000007D0300087D0300087D03000857
:1001100000000000000000000000000000000000DF
:100120007D0300087D0300087D0300087D030008AF
:100130007D03000800000000000000000000000037
:100140000000000000000000000000007D03000827
:100150007D0300087D0300087D0300087D0300087F
:100160007D0300087D03000800000000000000007F
:10017000000000000000000000000000000000007F
:10018000000000000000000000000000000000006F
:080190007D0300087D03000857
:1001980010B5054C237833B9044B13B10448AFF3B9
:1001A80000800123237010BD04000020000000001F
:1001B8008003000808B5034B1BB103490348AFF39C
:1001C800008008BD0000000008000020800300082F
:1001D80070B50D4D0D4C641BA4100026A64209D124
:1001E8000B4D0C4C00F0C8F8641BA4100026A64266
:1001F80005D170BD55F8043B98470136EEE755F830
:10020800043B98470136F2E7980300089803000872
:1002180098030008A003000870477047024B13B109
:10022800024800F005B870470000000045020008C9
:10023800002301461A46184600F014B838B5074D91
:10024800074C641BA4101CB9BDE8384000F09AB8EC
:10025800013C55F824309847F5E700BFA003000893
:10026800A40300082DE9F047DFF874A00646DAF881
:10027800000098460F469146FFF7CEFF164B1C68C4
:100288000CB9164C1C606568DAF800001F2D05DDF6
:10029800FFF7C3FF4FF0FF30BDE8F0879EB104EBD6
:1002A80085010122C1F88890D4F88831AA40134307
:1002B800C4F88831022EC1F8088102BFD4F88C3105
:1002C8001343C4F88C316B1C0235636044F8257005
:1002D800FFF7A3FF0020DFE724000020280000200C
:1002E800000000200C4A136B43F0010313630B4B0F
:1002F8001A6842F480621A601A6822F400621A606E
:1003080003E00133064A9342FBDD044A536983F054
:10031800200353610023F5E7003802400000024043
:10032800FEFF0F000D488546AFF300800C480D49CD
:100338000D4A002302E0D458C4500433C4188C4238
:10034800F9D30A4A0A4C002301E013600432A2429E
:10035800FBD3FFF73DFFFFF7C5FFFEE700000220D4
:100368000000002004000020A4030008040000206E
:10037800B8010020FEE70000F8B500BFF8BC08BCD3
:100388009E467047F8B500BFF8BC08BC9E4670474B
:0803980025020008BD01000868
:0403A00099010008B7
:0403A4002000002015
:040000050800032DBF
:00000001FF
